{
  "_format": "hh-sol-artifact-1",
  "contractName": "MyNFT",
  "sourceName": "contracts/MyNFT.sol",
  "abi": [
    {
      "inputs": [],
      "stateMutability": "nonpayable",
      "type": "constructor"
    },
    {
      "anonymous": false,
      "inputs": [
        {
          "indexed": true,
          "internalType": "address",
          "name": "owner",
          "type": "address"
        },
        {
          "indexed": true,
          "internalType": "address",
          "name": "approved",
          "type": "address"
        },
        {
          "indexed": true,
          "internalType": "uint256",
          "name": "tokenId",
          "type": "uint256"
        }
      ],
      "name": "Approval",
      "type": "event"
    },
    {
      "anonymous": false,
      "inputs": [
        {
          "indexed": true,
          "internalType": "address",
          "name": "owner",
          "type": "address"
        },
        {
          "indexed": true,
          "internalType": "address",
          "name": "operator",
          "type": "address"
        },
        {
          "indexed": false,
          "internalType": "bool",
          "name": "approved",
          "type": "bool"
        }
      ],
      "name": "ApprovalForAll",
      "type": "event"
    },
    {
      "anonymous": false,
      "inputs": [
        {
          "indexed": true,
          "internalType": "address",
          "name": "previousOwner",
          "type": "address"
        },
        {
          "indexed": true,
          "internalType": "address",
          "name": "newOwner",
          "type": "address"
        }
      ],
      "name": "OwnershipTransferred",
      "type": "event"
    },
    {
      "anonymous": false,
      "inputs": [
        {
          "indexed": true,
          "internalType": "address",
          "name": "from",
          "type": "address"
        },
        {
          "indexed": true,
          "internalType": "address",
          "name": "to",
          "type": "address"
        },
        {
          "indexed": true,
          "internalType": "uint256",
          "name": "tokenId",
          "type": "uint256"
        }
      ],
      "name": "Transfer",
      "type": "event"
    },
    {
      "inputs": [
        {
          "internalType": "address",
          "name": "to",
          "type": "address"
        },
        {
          "internalType": "uint256",
          "name": "tokenId",
          "type": "uint256"
        }
      ],
      "name": "approve",
      "outputs": [],
      "stateMutability": "nonpayable",
      "type": "function"
    },
    {
      "inputs": [
        {
          "internalType": "address",
          "name": "owner",
          "type": "address"
        }
      ],
      "name": "balanceOf",
      "outputs": [
        {
          "internalType": "uint256",
          "name": "",
          "type": "uint256"
        }
      ],
      "stateMutability": "view",
      "type": "function"
    },
    {
      "inputs": [
        {
          "internalType": "uint256",
          "name": "tokenId",
          "type": "uint256"
        }
      ],
      "name": "getApproved",
      "outputs": [
        {
          "internalType": "address",
          "name": "",
          "type": "address"
        }
      ],
      "stateMutability": "view",
      "type": "function"
    },
    {
      "inputs": [
        {
          "internalType": "address",
          "name": "owner",
          "type": "address"
        },
        {
          "internalType": "address",
          "name": "operator",
          "type": "address"
        }
      ],
      "name": "isApprovedForAll",
      "outputs": [
        {
          "internalType": "bool",
          "name": "",
          "type": "bool"
        }
      ],
      "stateMutability": "view",
      "type": "function"
    },
    {
      "inputs": [
        {
          "internalType": "address",
          "name": "recipient",
          "type": "address"
        },
        {
          "internalType": "string",
          "name": "tokenURI",
          "type": "string"
        }
      ],
      "name": "mintNFT",
      "outputs": [
        {
          "internalType": "uint256",
          "name": "",
          "type": "uint256"
        }
      ],
      "stateMutability": "nonpayable",
      "type": "function"
    },
    {
      "inputs": [],
      "name": "name",
      "outputs": [
        {
          "internalType": "string",
          "name": "",
          "type": "string"
        }
      ],
      "stateMutability": "view",
      "type": "function"
    },
    {
      "inputs": [],
      "name": "owner",
      "outputs": [
        {
          "internalType": "address",
          "name": "",
          "type": "address"
        }
      ],
      "stateMutability": "view",
      "type": "function"
    },
    {
      "inputs": [
        {
          "internalType": "uint256",
          "name": "tokenId",
          "type": "uint256"
        }
      ],
      "name": "ownerOf",
      "outputs": [
        {
          "internalType": "address",
          "name": "",
          "type": "address"
        }
      ],
      "stateMutability": "view",
      "type": "function"
    },
    {
      "inputs": [],
      "name": "renounceOwnership",
      "outputs": [],
      "stateMutability": "nonpayable",
      "type": "function"
    },
    {
      "inputs": [
        {
          "internalType": "address",
          "name": "from",
          "type": "address"
        },
        {
          "internalType": "address",
          "name": "to",
          "type": "address"
        },
        {
          "internalType": "uint256",
          "name": "tokenId",
          "type": "uint256"
        }
      ],
      "name": "safeTransferFrom",
      "outputs": [],
      "stateMutability": "nonpayable",
      "type": "function"
    },
    {
      "inputs": [
        {
          "internalType": "address",
          "name": "from",
          "type": "address"
        },
        {
          "internalType": "address",
          "name": "to",
          "type": "address"
        },
        {
          "internalType": "uint256",
          "name": "tokenId",
          "type": "uint256"
        },
        {
          "internalType": "bytes",
          "name": "_data",
          "type": "bytes"
        }
      ],
      "name": "safeTransferFrom",
      "outputs": [],
      "stateMutability": "nonpayable",
      "type": "function"
    },
    {
      "inputs": [
        {
          "internalType": "address",
          "name": "operator",
          "type": "address"
        },
        {
          "internalType": "bool",
          "name": "approved",
          "type": "bool"
        }
      ],
      "name": "setApprovalForAll",
      "outputs": [],
      "stateMutability": "nonpayable",
      "type": "function"
    },
    {
      "inputs": [
        {
          "internalType": "bytes4",
          "name": "interfaceId",
          "type": "bytes4"
        }
      ],
      "name": "supportsInterface",
      "outputs": [
        {
          "internalType": "bool",
          "name": "",
          "type": "bool"
        }
      ],
      "stateMutability": "view",
      "type": "function"
    },
    {
      "inputs": [],
      "name": "symbol",
      "outputs": [
        {
          "internalType": "string",
          "name": "",
          "type": "string"
        }
      ],
      "stateMutability": "view",
      "type": "function"
    },
    {
      "inputs": [
        {
          "internalType": "uint256",
          "name": "tokenId",
          "type": "uint256"
        }
      ],
      "name": "tokenURI",
      "outputs": [
        {
          "internalType": "string",
          "name": "",
          "type": "string"
        }
      ],
      "stateMutability": "view",
      "type": "function"
    },
    {
      "inputs": [
        {
          "internalType": "address",
          "name": "from",
          "type": "address"
        },
        {
          "internalType": "address",
          "name": "to",
          "type": "address"
        },
        {
          "internalType": "uint256",
          "name": "tokenId",
          "type": "uint256"
        }
      ],
      "name": "transferFrom",
      "outputs": [],
      "stateMutability": "nonpayable",
      "type": "function"
    },
    {
      "inputs": [
        {
          "internalType": "address",
          "name": "newOwner",
          "type": "address"
        }
      ],
      "name": "transferOwnership",
      "outputs": [],
      "stateMutability": "nonpayable",
      "type": "function"
    }
  ],
  "bytecode": "0x60806040523480156200001157600080fd5b506040518060400160405280600581526020017f4d794e46540000000000000000000000000000000000000000000000000000008152506040518060400160405280600381526020017f4e46540000000000000000000000000000000000000000000000000000000000815250816000908051906020019062000096929190620001a6565b508060019080519060200190620000af929190620001a6565b505050620000d2620000c6620000d860201b60201c565b620000e060201b60201c565b620002bb565b600033905090565b6000600760009054906101000a900473ffffffffffffffffffffffffffffffffffffffff16905081600760006101000a81548173ffffffffffffffffffffffffffffffffffffffff021916908373ffffffffffffffffffffffffffffffffffffffff1602179055508173ffffffffffffffffffffffffffffffffffffffff168173ffffffffffffffffffffffffffffffffffffffff167f8be0079c531659141344cd1fd0a4f28419497f9722a3daafe3b4186f6b6457e060405160405180910390a35050565b828054620001b49062000285565b90600052602060002090601f016020900481019282620001d8576000855562000224565b82601f10620001f357805160ff191683800117855562000224565b8280016001018555821562000224579182015b828111156200022357825182559160200191906001019062000206565b5b50905062000233919062000237565b5090565b5b808211156200025257600081600090555060010162000238565b5090565b7f4e487b7100000000000000000000000000000000000000000000000000000000600052602260045260246000fd5b600060028204905060018216806200029e57607f821691505b60208210811415620002b557620002b462000256565b5b50919050565b6132c480620002cb6000396000f3fe608060405234801561001057600080fd5b506004361061010b5760003560e01c8063715018a6116100a2578063b88d4fde11610071578063b88d4fde146102a4578063c87b56dd146102c0578063e985e9c5146102f0578063eacabe1414610320578063f2fde38b146103505761010b565b8063715018a6146102425780638da5cb5b1461024c57806395d89b411461026a578063a22cb465146102885761010b565b806323b872dd116100de57806323b872dd146101aa57806342842e0e146101c65780636352211e146101e257806370a08231146102125761010b565b806301ffc9a71461011057806306fdde0314610140578063081812fc1461015e578063095ea7b31461018e575b600080fd5b61012a60048036038101906101259190611e0f565b61036c565b6040516101379190611e57565b60405180910390f35b61014861044e565b6040516101559190611f0b565b60405180910390f35b61017860048036038101906101739190611f63565b6104e0565b6040516101859190611fd1565b60405180910390f35b6101a860048036038101906101a39190612018565b610565565b005b6101c460048036038101906101bf9190612058565b61067d565b005b6101e060048036038101906101db9190612058565b6106dd565b005b6101fc60048036038101906101f79190611f63565b6106fd565b6040516102099190611fd1565b60405180910390f35b61022c600480360381019061022791906120ab565b6107af565b60405161023991906120e7565b60405180910390f35b61024a610867565b005b6102546108ef565b6040516102619190611fd1565b60405180910390f35b610272610919565b60405161027f9190611f0b565b60405180910390f35b6102a2600480360381019061029d919061212e565b6109ab565b005b6102be60048036038101906102b991906122a3565b6109c1565b005b6102da60048036038101906102d59190611f63565b610a23565b6040516102e79190611f0b565b60405180910390f35b61030a60048036038101906103059190612326565b610b75565b6040516103179190611e57565b60405180910390f35b61033a60048036038101906103359190612407565b610c09565b60405161034791906120e7565b60405180910390f35b61036a600480360381019061036591906120ab565b610cc6565b005b60007f80ac58cd000000000000000000000000000000000000000000000000000000007bffffffffffffffffffffffffffffffffffffffffffffffffffffffff1916827bffffffffffffffffffffffffffffffffffffffffffffffffffffffff1916148061043757507f5b5e139f000000000000000000000000000000000000000000000000000000007bffffffffffffffffffffffffffffffffffffffffffffffffffffffff1916827bffffffffffffffffffffffffffffffffffffffffffffffffffffffff1916145b80610447575061044682610dbe565b5b9050919050565b60606000805461045d90612492565b80601f016020809104026020016040519081016040528092919081815260200182805461048990612492565b80156104d65780601f106104ab576101008083540402835291602001916104d6565b820191906000526020600020905b8154815290600101906020018083116104b957829003601f168201915b5050505050905090565b60006104eb82610e28565b61052a576040517f08c379a000000000000000000000000000000000000000000000000000000000815260040161052190612536565b60405180910390fd5b6004600083815260200190815260200160002060009054906101000a900473ffffffffffffffffffffffffffffffffffffffff169050919050565b6000610570826106fd565b90508073ffffffffffffffffffffffffffffffffffffffff168373ffffffffffffffffffffffffffffffffffffffff1614156105e1576040517f08c379a00000000000000000000000000000000000000000000000000000000081526004016105d8906125c8565b60405180910390fd5b8073ffffffffffffffffffffffffffffffffffffffff16610600610e94565b73ffffffffffffffffffffffffffffffffffffffff16148061062f575061062e81610629610e94565b610b75565b5b61066e576040517f08c379a00000000000000000000000000000000000000000000000000000000081526004016106659061265a565b60405180910390fd5b6106788383610e9c565b505050565b61068e610688610e94565b82610f55565b6106cd576040517f08c379a00000000000000000000000000000000000000000000000000000000081526004016106c4906126ec565b60405180910390fd5b6106d8838383611033565b505050565b6106f8838383604051806020016040528060008152506109c1565b505050565b6000806002600084815260200190815260200160002060009054906101000a900473ffffffffffffffffffffffffffffffffffffffff169050600073ffffffffffffffffffffffffffffffffffffffff168173ffffffffffffffffffffffffffffffffffffffff1614156107a6576040517f08c379a000000000000000000000000000000000000000000000000000000000815260040161079d9061277e565b60405180910390fd5b80915050919050565b60008073ffffffffffffffffffffffffffffffffffffffff168273ffffffffffffffffffffffffffffffffffffffff161415610820576040517f08c379a000000000000000000000000000000000000000000000000000000000815260040161081790612810565b60405180910390fd5b600360008373ffffffffffffffffffffffffffffffffffffffff1673ffffffffffffffffffffffffffffffffffffffff168152602001908152602001600020549050919050565b61086f610e94565b73ffffffffffffffffffffffffffffffffffffffff1661088d6108ef565b73ffffffffffffffffffffffffffffffffffffffff16146108e3576040517f08c379a00000000000000000000000000000000000000000000000000000000081526004016108da9061287c565b60405180910390fd5b6108ed600061128f565b565b6000600760009054906101000a900473ffffffffffffffffffffffffffffffffffffffff16905090565b60606001805461092890612492565b80601f016020809104026020016040519081016040528092919081815260200182805461095490612492565b80156109a15780601f10610976576101008083540402835291602001916109a1565b820191906000526020600020905b81548152906001019060200180831161098457829003601f168201915b5050505050905090565b6109bd6109b6610e94565b8383611355565b5050565b6109d26109cc610e94565b83610f55565b610a11576040517f08c379a0000000000000000000000000000000000000000000000000000000008152600401610a08906126ec565b60405180910390fd5b610a1d848484846114c2565b50505050565b6060610a2e82610e28565b610a6d576040517f08c379a0000000000000000000000000000000000000000000000000000000008152600401610a649061290e565b60405180910390fd5b6000600660008481526020019081526020016000208054610a8d90612492565b80601f0160208091040260200160405190810160405280929190818152602001828054610ab990612492565b8015610b065780601f10610adb57610100808354040283529160200191610b06565b820191906000526020600020905b815481529060010190602001808311610ae957829003601f168201915b505050505090506000610b1761151e565b9050600081511415610b2d578192505050610b70565b600082511115610b62578082604051602001610b4a92919061296a565b60405160208183030381529060405292505050610b70565b610b6b84611535565b925050505b919050565b6000600560008473ffffffffffffffffffffffffffffffffffffffff1673ffffffffffffffffffffffffffffffffffffffff16815260200190815260200160002060008373ffffffffffffffffffffffffffffffffffffffff1673ffffffffffffffffffffffffffffffffffffffff16815260200190815260200160002060009054906101000a900460ff16905092915050565b6000610c13610e94565b73ffffffffffffffffffffffffffffffffffffffff16610c316108ef565b73ffffffffffffffffffffffffffffffffffffffff1614610c87576040517f08c379a0000000000000000000000000000000000000000000000000000000008152600401610c7e9061287c565b60405180910390fd5b610c9160086115dc565b6000610c9d60086115f2565b9050610ca98482611600565b610cbc81610cb785846117ce565b611802565b8091505092915050565b610cce610e94565b73ffffffffffffffffffffffffffffffffffffffff16610cec6108ef565b73ffffffffffffffffffffffffffffffffffffffff1614610d42576040517f08c379a0000000000000000000000000000000000000000000000000000000008152600401610d399061287c565b60405180910390fd5b600073ffffffffffffffffffffffffffffffffffffffff168173ffffffffffffffffffffffffffffffffffffffff161415610db2576040517f08c379a0000000000000000000000000000000000000000000000000000000008152600401610da990612a00565b60405180910390fd5b610dbb8161128f565b50565b60007f01ffc9a7000000000000000000000000000000000000000000000000000000007bffffffffffffffffffffffffffffffffffffffffffffffffffffffff1916827bffffffffffffffffffffffffffffffffffffffffffffffffffffffff1916149050919050565b60008073ffffffffffffffffffffffffffffffffffffffff166002600084815260200190815260200160002060009054906101000a900473ffffffffffffffffffffffffffffffffffffffff1673ffffffffffffffffffffffffffffffffffffffff1614159050919050565b600033905090565b816004600083815260200190815260200160002060006101000a81548173ffffffffffffffffffffffffffffffffffffffff021916908373ffffffffffffffffffffffffffffffffffffffff160217905550808273ffffffffffffffffffffffffffffffffffffffff16610f0f836106fd565b73ffffffffffffffffffffffffffffffffffffffff167f8c5be1e5ebec7d5bd14f71427d1e84f3dd0314c0f7b2291e5b200ac8c7c3b92560405160405180910390a45050565b6000610f6082610e28565b610f9f576040517f08c379a0000000000000000000000000000000000000000000000000000000008152600401610f9690612a92565b60405180910390fd5b6000610faa836106fd565b90508073ffffffffffffffffffffffffffffffffffffffff168473ffffffffffffffffffffffffffffffffffffffff16148061101957508373ffffffffffffffffffffffffffffffffffffffff16611001846104e0565b73ffffffffffffffffffffffffffffffffffffffff16145b8061102a57506110298185610b75565b5b91505092915050565b8273ffffffffffffffffffffffffffffffffffffffff16611053826106fd565b73ffffffffffffffffffffffffffffffffffffffff16146110a9576040517f08c379a00000000000000000000000000000000000000000000000000000000081526004016110a090612b24565b60405180910390fd5b600073ffffffffffffffffffffffffffffffffffffffff168273ffffffffffffffffffffffffffffffffffffffff161415611119576040517f08c379a000000000000000000000000000000000000000000000000000000000815260040161111090612bb6565b60405180910390fd5b611124838383611876565b61112f600082610e9c565b6001600360008573ffffffffffffffffffffffffffffffffffffffff1673ffffffffffffffffffffffffffffffffffffffff168152602001908152602001600020600082825461117f9190612c05565b925050819055506001600360008473ffffffffffffffffffffffffffffffffffffffff1673ffffffffffffffffffffffffffffffffffffffff16815260200190815260200160002060008282546111d69190612c39565b92505081905550816002600083815260200190815260200160002060006101000a81548173ffffffffffffffffffffffffffffffffffffffff021916908373ffffffffffffffffffffffffffffffffffffffff160217905550808273ffffffffffffffffffffffffffffffffffffffff168473ffffffffffffffffffffffffffffffffffffffff167fddf252ad1be2c89b69c2b068fc378daa952ba7f163c4a11628f55a4df523b3ef60405160405180910390a4505050565b6000600760009054906101000a900473ffffffffffffffffffffffffffffffffffffffff16905081600760006101000a81548173ffffffffffffffffffffffffffffffffffffffff021916908373ffffffffffffffffffffffffffffffffffffffff1602179055508173ffffffffffffffffffffffffffffffffffffffff168173ffffffffffffffffffffffffffffffffffffffff167f8be0079c531659141344cd1fd0a4f28419497f9722a3daafe3b4186f6b6457e060405160405180910390a35050565b8173ffffffffffffffffffffffffffffffffffffffff168373ffffffffffffffffffffffffffffffffffffffff1614156113c4576040517f08c379a00000000000000000000000000000000000000000000000000000000081526004016113bb90612cdb565b60405180910390fd5b80600560008573ffffffffffffffffffffffffffffffffffffffff1673ffffffffffffffffffffffffffffffffffffffff16815260200190815260200160002060008473ffffffffffffffffffffffffffffffffffffffff1673ffffffffffffffffffffffffffffffffffffffff16815260200190815260200160002060006101000a81548160ff0219169083151502179055508173ffffffffffffffffffffffffffffffffffffffff168373ffffffffffffffffffffffffffffffffffffffff167f17307eab39ab6107e8899845ad3d59bd9653f200f220920489ca2b5937696c31836040516114b59190611e57565b60405180910390a3505050565b6114cd848484611033565b6114d98484848461187b565b611518576040517f08c379a000000000000000000000000000000000000000000000000000000000815260040161150f90612d6d565b60405180910390fd5b50505050565b606060405180602001604052806000815250905090565b606061154082610e28565b61157f576040517f08c379a000000000000000000000000000000000000000000000000000000000815260040161157690612dff565b60405180910390fd5b600061158961151e565b905060008151116115a957604051806020016040528060008152506115d4565b806115b384611a03565b6040516020016115c492919061296a565b6040516020818303038152906040525b915050919050565b6001816000016000828254019250508190555050565b600081600001549050919050565b600073ffffffffffffffffffffffffffffffffffffffff168273ffffffffffffffffffffffffffffffffffffffff161415611670576040517f08c379a000000000000000000000000000000000000000000000000000000000815260040161166790612e6b565b60405180910390fd5b61167981610e28565b156116b9576040517f08c379a00000000000000000000000000000000000000000000000000000000081526004016116b090612ed7565b60405180910390fd5b6116c560008383611876565b6001600360008473ffffffffffffffffffffffffffffffffffffffff1673ffffffffffffffffffffffffffffffffffffffff16815260200190815260200160002060008282546117159190612c39565b92505081905550816002600083815260200190815260200160002060006101000a81548173ffffffffffffffffffffffffffffffffffffffff021916908373ffffffffffffffffffffffffffffffffffffffff160217905550808273ffffffffffffffffffffffffffffffffffffffff16600073ffffffffffffffffffffffffffffffffffffffff167fddf252ad1be2c89b69c2b068fc378daa952ba7f163c4a11628f55a4df523b3ef60405160405180910390a45050565b6060826117da83611b64565b6040516020016117eb929190612f43565b604051602081830303815290604052905092915050565b61180b82610e28565b61184a576040517f08c379a000000000000000000000000000000000000000000000000000000000815260040161184190612fe4565b60405180910390fd5b80600660008481526020019081526020016000209080519060200190611871929190611d00565b505050565b505050565b600061189c8473ffffffffffffffffffffffffffffffffffffffff16611ced565b156119f6578373ffffffffffffffffffffffffffffffffffffffff1663150b7a026118c5610e94565b8786866040518563ffffffff1660e01b81526004016118e79493929190613059565b6020604051808303816000875af192505050801561192357506040513d601f19601f8201168201806040525081019061192091906130ba565b60015b6119a6573d8060008114611953576040519150601f19603f3d011682016040523d82523d6000602084013e611958565b606091505b5060008151141561199e576040517f08c379a000000000000000000000000000000000000000000000000000000000815260040161199590612d6d565b60405180910390fd5b805181602001fd5b63150b7a0260e01b7bffffffffffffffffffffffffffffffffffffffffffffffffffffffff1916817bffffffffffffffffffffffffffffffffffffffffffffffffffffffff1916149150506119fb565b600190505b949350505050565b60606000821415611a4b576040518060400160405280600181526020017f30000000000000000000000000000000000000000000000000000000000000008152509050611b5f565b600082905060005b60008214611a7d578080611a66906130e7565b915050600a82611a76919061315f565b9150611a53565b60008167ffffffffffffffff811115611a9957611a98612178565b5b6040519080825280601f01601f191660200182016040528015611acb5781602001600182028036833780820191505090505b5090505b60008514611b5857600182611ae49190612c05565b9150600a85611af39190613190565b6030611aff9190612c39565b60f81b818381518110611b1557611b146131c1565b5b60200101907effffffffffffffffffffffffffffffffffffffffffffffffffffffffffffff1916908160001a905350600a85611b51919061315f565b9450611acf565b8093505050505b919050565b60606000821415611bac576040518060400160405280600181526020017f30000000000000000000000000000000000000000000000000000000000000008152509050611ce8565b600082905060005b60008214611bde578080611bc7906130e7565b915050600a82611bd7919061315f565b9150611bb4565b60008167ffffffffffffffff811115611bfa57611bf9612178565b5b6040519080825280601f01601f191660200182016040528015611c2c5781602001600182028036833780820191505090505b50905060008290505b60008614611ce057600181611c4a9190612c05565b90506000600a8088611c5c919061315f565b611c6691906131f0565b87611c719190612c05565b6030611c7d9190613257565b905060008160f81b905080848481518110611c9b57611c9a6131c1565b5b60200101907effffffffffffffffffffffffffffffffffffffffffffffffffffffffffffff1916908160001a905350600a88611cd7919061315f565b97505050611c35565b819450505050505b919050565b600080823b905060008111915050919050565b828054611d0c90612492565b90600052602060002090601f016020900481019282611d2e5760008555611d75565b82601f10611d4757805160ff1916838001178555611d75565b82800160010185558215611d75579182015b82811115611d74578251825591602001919060010190611d59565b5b509050611d829190611d86565b5090565b5b80821115611d9f576000816000905550600101611d87565b5090565b6000604051905090565b600080fd5b600080fd5b60007fffffffff0000000000000000000000000000000000000000000000000000000082169050919050565b611dec81611db7565b8114611df757600080fd5b50565b600081359050611e0981611de3565b92915050565b600060208284031215611e2557611e24611dad565b5b6000611e3384828501611dfa565b91505092915050565b60008115159050919050565b611e5181611e3c565b82525050565b6000602082019050611e6c6000830184611e48565b92915050565b600081519050919050565b600082825260208201905092915050565b60005b83811015611eac578082015181840152602081019050611e91565b83811115611ebb576000848401525b50505050565b6000601f19601f8301169050919050565b6000611edd82611e72565b611ee78185611e7d565b9350611ef7818560208601611e8e565b611f0081611ec1565b840191505092915050565b60006020820190508181036000830152611f258184611ed2565b905092915050565b6000819050919050565b611f4081611f2d565b8114611f4b57600080fd5b50565b600081359050611f5d81611f37565b92915050565b600060208284031215611f7957611f78611dad565b5b6000611f8784828501611f4e565b91505092915050565b600073ffffffffffffffffffffffffffffffffffffffff82169050919050565b6000611fbb82611f90565b9050919050565b611fcb81611fb0565b82525050565b6000602082019050611fe66000830184611fc2565b92915050565b611ff581611fb0565b811461200057600080fd5b50565b60008135905061201281611fec565b92915050565b6000806040838503121561202f5761202e611dad565b5b600061203d85828601612003565b925050602061204e85828601611f4e565b9150509250929050565b60008060006060848603121561207157612070611dad565b5b600061207f86828701612003565b935050602061209086828701612003565b92505060406120a186828701611f4e565b9150509250925092565b6000602082840312156120c1576120c0611dad565b5b60006120cf84828501612003565b91505092915050565b6120e181611f2d565b82525050565b60006020820190506120fc60008301846120d8565b92915050565b61210b81611e3c565b811461211657600080fd5b50565b60008135905061212881612102565b92915050565b6000806040838503121561214557612144611dad565b5b600061215385828601612003565b925050602061216485828601612119565b9150509250929050565b600080fd5b600080fd5b7f4e487b7100000000000000000000000000000000000000000000000000000000600052604160045260246000fd5b6121b082611ec1565b810181811067ffffffffffffffff821117156121cf576121ce612178565b5b80604052505050565b60006121e2611da3565b90506121ee82826121a7565b919050565b600067ffffffffffffffff82111561220e5761220d612178565b5b61221782611ec1565b9050602081019050919050565b82818337600083830152505050565b6000612246612241846121f3565b6121d8565b90508281526020810184848401111561226257612261612173565b5b61226d848285612224565b509392505050565b600082601f83011261228a5761228961216e565b5b813561229a848260208601612233565b91505092915050565b600080600080608085870312156122bd576122bc611dad565b5b60006122cb87828801612003565b94505060206122dc87828801612003565b93505060406122ed87828801611f4e565b925050606085013567ffffffffffffffff81111561230e5761230d611db2565b5b61231a87828801612275565b91505092959194509250565b6000806040838503121561233d5761233c611dad565b5b600061234b85828601612003565b925050602061235c85828601612003565b9150509250929050565b600067ffffffffffffffff82111561238157612380612178565b5b61238a82611ec1565b9050602081019050919050565b60006123aa6123a584612366565b6121d8565b9050828152602081018484840111156123c6576123c5612173565b5b6123d1848285612224565b509392505050565b600082601f8301126123ee576123ed61216e565b5b81356123fe848260208601612397565b91505092915050565b6000806040838503121561241e5761241d611dad565b5b600061242c85828601612003565b925050602083013567ffffffffffffffff81111561244d5761244c611db2565b5b612459858286016123d9565b9150509250929050565b7f4e487b7100000000000000000000000000000000000000000000000000000000600052602260045260246000fd5b600060028204905060018216806124aa57607f821691505b602082108114156124be576124bd612463565b5b50919050565b7f4552433732313a20617070726f76656420717565727920666f72206e6f6e657860008201527f697374656e7420746f6b656e0000000000000000000000000000000000000000602082015250565b6000612520602c83611e7d565b915061252b826124c4565b604082019050919050565b6000602082019050818103600083015261254f81612513565b9050919050565b7f4552433732313a20617070726f76616c20746f2063757272656e74206f776e6560008201527f7200000000000000000000000000000000000000000000000000000000000000602082015250565b60006125b2602183611e7d565b91506125bd82612556565b604082019050919050565b600060208201905081810360008301526125e1816125a5565b9050919050565b7f4552433732313a20617070726f76652063616c6c6572206973206e6f74206f7760008201527f6e6572206e6f7220617070726f76656420666f7220616c6c0000000000000000602082015250565b6000612644603883611e7d565b915061264f826125e8565b604082019050919050565b6000602082019050818103600083015261267381612637565b9050919050565b7f4552433732313a207472616e736665722063616c6c6572206973206e6f74206f60008201527f776e6572206e6f7220617070726f766564000000000000000000000000000000602082015250565b60006126d6603183611e7d565b91506126e18261267a565b604082019050919050565b60006020820190508181036000830152612705816126c9565b9050919050565b7f4552433732313a206f776e657220717565727920666f72206e6f6e657869737460008201527f656e7420746f6b656e0000000000000000000000000000000000000000000000602082015250565b6000612768602983611e7d565b91506127738261270c565b604082019050919050565b600060208201905081810360008301526127978161275b565b9050919050565b7f4552433732313a2062616c616e636520717565727920666f7220746865207a6560008201527f726f206164647265737300000000000000000000000000000000000000000000602082015250565b60006127fa602a83611e7d565b91506128058261279e565b604082019050919050565b60006020820190508181036000830152612829816127ed565b9050919050565b7f4f776e61626c653a2063616c6c6572206973206e6f7420746865206f776e6572600082015250565b6000612866602083611e7d565b915061287182612830565b602082019050919050565b6000602082019050818103600083015261289581612859565b9050919050565b7f45524337323155524953746f726167653a2055524920717565727920666f722060008201527f6e6f6e6578697374656e7420746f6b656e000000000000000000000000000000602082015250565b60006128f8603183611e7d565b91506129038261289c565b604082019050919050565b60006020820190508181036000830152612927816128eb565b9050919050565b600081905092915050565b600061294482611e72565b61294e818561292e565b935061295e818560208601611e8e565b80840191505092915050565b60006129768285612939565b91506129828284612939565b91508190509392505050565b7f4f776e61626c653a206e6577206f776e657220697320746865207a65726f206160008201527f6464726573730000000000000000000000000000000000000000000000000000602082015250565b60006129ea602683611e7d565b91506129f58261298e565b604082019050919050565b60006020820190508181036000830152612a19816129dd565b9050919050565b7f4552433732313a206f70657261746f7220717565727920666f72206e6f6e657860008201527f697374656e7420746f6b656e0000000000000000000000000000000000000000602082015250565b6000612a7c602c83611e7d565b9150612a8782612a20565b604082019050919050565b60006020820190508181036000830152612aab81612a6f565b9050919050565b7f4552433732313a207472616e73666572206f6620746f6b656e2074686174206960008201527f73206e6f74206f776e0000000000000000000000000000000000000000000000602082015250565b6000612b0e602983611e7d565b9150612b1982612ab2565b604082019050919050565b60006020820190508181036000830152612b3d81612b01565b9050919050565b7f4552433732313a207472616e7366657220746f20746865207a65726f2061646460008201527f7265737300000000000000000000000000000000000000000000000000000000602082015250565b6000612ba0602483611e7d565b9150612bab82612b44565b604082019050919050565b60006020820190508181036000830152612bcf81612b93565b9050919050565b7f4e487b7100000000000000000000000000000000000000000000000000000000600052601160045260246000fd5b6000612c1082611f2d565b9150612c1b83611f2d565b925082821015612c2e57612c2d612bd6565b5b828203905092915050565b6000612c4482611f2d565b9150612c4f83611f2d565b9250827fffffffffffffffffffffffffffffffffffffffffffffffffffffffffffffffff03821115612c8457612c83612bd6565b5b828201905092915050565b7f4552433732313a20617070726f766520746f2063616c6c657200000000000000600082015250565b6000612cc5601983611e7d565b9150612cd082612c8f565b602082019050919050565b60006020820190508181036000830152612cf481612cb8565b9050919050565b7f4552433732313a207472616e7366657220746f206e6f6e20455243373231526560008201527f63656976657220696d706c656d656e7465720000000000000000000000000000602082015250565b6000612d57603283611e7d565b9150612d6282612cfb565b604082019050919050565b60006020820190508181036000830152612d8681612d4a565b9050919050565b7f4552433732314d657461646174613a2055524920717565727920666f72206e6f60008201527f6e6578697374656e7420746f6b656e0000000000000000000000000000000000602082015250565b6000612de9602f83611e7d565b9150612df482612d8d565b604082019050919050565b60006020820190508181036000830152612e1881612ddc565b9050919050565b7f4552433732313a206d696e7420746f20746865207a65726f2061646472657373600082015250565b6000612e55602083611e7d565b9150612e6082612e1f565b602082019050919050565b60006020820190508181036000830152612e8481612e48565b9050919050565b7f4552433732313a20746f6b656e20616c7265616479206d696e74656400000000600082015250565b6000612ec1601c83611e7d565b9150612ecc82612e8b565b602082019050919050565b60006020820190508181036000830152612ef081612eb4565b9050919050565b7f2e6a736f6e000000000000000000000000000000000000000000000000000000600082015250565b6000612f2d60058361292e565b9150612f3882612ef7565b600582019050919050565b6000612f4f8285612939565b9150612f5b8284612939565b9150612f6682612f20565b91508190509392505050565b7f45524337323155524953746f726167653a2055524920736574206f66206e6f6e60008201527f6578697374656e7420746f6b656e000000000000000000000000000000000000602082015250565b6000612fce602e83611e7d565b9150612fd982612f72565b604082019050919050565b60006020820190508181036000830152612ffd81612fc1565b9050919050565b600081519050919050565b600082825260208201905092915050565b600061302b82613004565b613035818561300f565b9350613045818560208601611e8e565b61304e81611ec1565b840191505092915050565b600060808201905061306e6000830187611fc2565b61307b6020830186611fc2565b61308860408301856120d8565b818103606083015261309a8184613020565b905095945050505050565b6000815190506130b481611de3565b92915050565b6000602082840312156130d0576130cf611dad565b5b60006130de848285016130a5565b91505092915050565b60006130f282611f2d565b91507fffffffffffffffffffffffffffffffffffffffffffffffffffffffffffffffff82141561312557613124612bd6565b5b600182019050919050565b7f4e487b7100000000000000000000000000000000000000000000000000000000600052601260045260246000fd5b600061316a82611f2d565b915061317583611f2d565b92508261318557613184613130565b5b828204905092915050565b600061319b82611f2d565b91506131a683611f2d565b9250826131b6576131b5613130565b5b828206905092915050565b7f4e487b7100000000000000000000000000000000000000000000000000000000600052603260045260246000fd5b60006131fb82611f2d565b915061320683611f2d565b9250817fffffffffffffffffffffffffffffffffffffffffffffffffffffffffffffffff048311821515161561323f5761323e612bd6565b5b828202905092915050565b600060ff82169050919050565b60006132628261324a565b915061326d8361324a565b92508260ff0382111561328357613282612bd6565b5b82820190509291505056fea2646970667358221220c8973af122cb9c39d8a47f1c2ee82e12e67ec9872b6b8e42503d7c4330a2555564736f6c634300080b0033",
  "linkReferences": {},
  "deployedLinkReferences": {}
}