{
  "_format": "hh-sol-artifact-1",
  "contractName": "MyNFTv2",
  "sourceName": "contracts/MyNFTv2.sol",
  "abi": [
    {
      "inputs": [],
      "stateMutability": "nonpayable",
      "type": "constructor"
    },
    {
      "anonymous": false,
      "inputs": [
        {
          "indexed": true,
          "internalType": "address",
          "name": "owner",
          "type": "address"
        },
        {
          "indexed": true,
          "internalType": "address",
          "name": "approved",
          "type": "address"
        },
        {
          "indexed": true,
          "internalType": "uint256",
          "name": "tokenId",
          "type": "uint256"
        }
      ],
      "name": "Approval",
      "type": "event"
    },
    {
      "anonymous": false,
      "inputs": [
        {
          "indexed": true,
          "internalType": "address",
          "name": "owner",
          "type": "address"
        },
        {
          "indexed": true,
          "internalType": "address",
          "name": "operator",
          "type": "address"
        },
        {
          "indexed": false,
          "internalType": "bool",
          "name": "approved",
          "type": "bool"
        }
      ],
      "name": "ApprovalForAll",
      "type": "event"
    },
    {
      "anonymous": false,
      "inputs": [
        {
          "indexed": false,
          "internalType": "address",
          "name": "_recipient",
          "type": "address"
        },
        {
          "indexed": false,
          "internalType": "uint16",
          "name": "_tokenId",
          "type": "uint16"
        }
      ],
      "name": "MintingNFT",
      "type": "event"
    },
    {
      "anonymous": false,
      "inputs": [
        {
          "indexed": true,
          "internalType": "address",
          "name": "previousOwner",
          "type": "address"
        },
        {
          "indexed": true,
          "internalType": "address",
          "name": "newOwner",
          "type": "address"
        }
      ],
      "name": "OwnershipTransferred",
      "type": "event"
    },
    {
      "anonymous": false,
      "inputs": [
        {
          "indexed": false,
          "internalType": "address",
          "name": "_recipient",
          "type": "address"
        },
        {
          "indexed": false,
          "internalType": "uint256",
          "name": "_value",
          "type": "uint256"
        }
      ],
      "name": "TakeStakeReward",
      "type": "event"
    },
    {
      "anonymous": false,
      "inputs": [
        {
          "indexed": true,
          "internalType": "address",
          "name": "from",
          "type": "address"
        },
        {
          "indexed": true,
          "internalType": "address",
          "name": "to",
          "type": "address"
        },
        {
          "indexed": true,
          "internalType": "uint256",
          "name": "tokenId",
          "type": "uint256"
        }
      ],
      "name": "Transfer",
      "type": "event"
    },
    {
      "inputs": [
        {
          "internalType": "address",
          "name": "to",
          "type": "address"
        },
        {
          "internalType": "uint256",
          "name": "tokenId",
          "type": "uint256"
        }
      ],
      "name": "approve",
      "outputs": [],
      "stateMutability": "nonpayable",
      "type": "function"
    },
    {
      "inputs": [
        {
          "internalType": "address",
          "name": "owner",
          "type": "address"
        }
      ],
      "name": "balanceOf",
      "outputs": [
        {
          "internalType": "uint256",
          "name": "",
          "type": "uint256"
        }
      ],
      "stateMutability": "view",
      "type": "function"
    },
    {
      "inputs": [
        {
          "internalType": "uint256",
          "name": "tokenId",
          "type": "uint256"
        }
      ],
      "name": "getApproved",
      "outputs": [
        {
          "internalType": "address",
          "name": "",
          "type": "address"
        }
      ],
      "stateMutability": "view",
      "type": "function"
    },
    {
      "inputs": [],
      "name": "getBalance",
      "outputs": [
        {
          "internalType": "uint256",
          "name": "",
          "type": "uint256"
        }
      ],
      "stateMutability": "view",
      "type": "function"
    },
    {
      "inputs": [],
      "name": "getMyStake",
      "outputs": [
        {
          "internalType": "uint256",
          "name": "",
          "type": "uint256"
        }
      ],
      "stateMutability": "view",
      "type": "function"
    },
    {
      "inputs": [],
      "name": "getTotalMinted",
      "outputs": [
        {
          "internalType": "uint16",
          "name": "",
          "type": "uint16"
        }
      ],
      "stateMutability": "view",
      "type": "function"
    },
    {
      "inputs": [
        {
          "internalType": "address",
          "name": "owner",
          "type": "address"
        },
        {
          "internalType": "address",
          "name": "operator",
          "type": "address"
        }
      ],
      "name": "isApprovedForAll",
      "outputs": [
        {
          "internalType": "bool",
          "name": "",
          "type": "bool"
        }
      ],
      "stateMutability": "view",
      "type": "function"
    },
    {
      "inputs": [
        {
          "internalType": "address",
          "name": "recipient",
          "type": "address"
        },
        {
          "internalType": "string",
          "name": "tokenURI",
          "type": "string"
        }
      ],
      "name": "mintNFT",
      "outputs": [
        {
          "internalType": "uint256",
          "name": "",
          "type": "uint256"
        }
      ],
      "stateMutability": "payable",
      "type": "function"
    },
    {
      "inputs": [],
      "name": "mintPrice",
      "outputs": [
        {
          "internalType": "uint256",
          "name": "",
          "type": "uint256"
        }
      ],
      "stateMutability": "view",
      "type": "function"
    },
    {
      "inputs": [],
      "name": "name",
      "outputs": [
        {
          "internalType": "string",
          "name": "",
          "type": "string"
        }
      ],
      "stateMutability": "view",
      "type": "function"
    },
    {
      "inputs": [],
      "name": "owner",
      "outputs": [
        {
          "internalType": "address",
          "name": "",
          "type": "address"
        }
      ],
      "stateMutability": "view",
      "type": "function"
    },
    {
      "inputs": [
        {
          "internalType": "uint256",
          "name": "tokenId",
          "type": "uint256"
        }
      ],
      "name": "ownerOf",
      "outputs": [
        {
          "internalType": "address",
          "name": "",
          "type": "address"
        }
      ],
      "stateMutability": "view",
      "type": "function"
    },
    {
      "inputs": [],
      "name": "renounceOwnership",
      "outputs": [],
      "stateMutability": "nonpayable",
      "type": "function"
    },
    {
      "inputs": [
        {
          "internalType": "address",
          "name": "from",
          "type": "address"
        },
        {
          "internalType": "address",
          "name": "to",
          "type": "address"
        },
        {
          "internalType": "uint256",
          "name": "tokenId",
          "type": "uint256"
        }
      ],
      "name": "safeTransferFrom",
      "outputs": [],
      "stateMutability": "nonpayable",
      "type": "function"
    },
    {
      "inputs": [
        {
          "internalType": "address",
          "name": "from",
          "type": "address"
        },
        {
          "internalType": "address",
          "name": "to",
          "type": "address"
        },
        {
          "internalType": "uint256",
          "name": "tokenId",
          "type": "uint256"
        },
        {
          "internalType": "bytes",
          "name": "_data",
          "type": "bytes"
        }
      ],
      "name": "safeTransferFrom",
      "outputs": [],
      "stateMutability": "nonpayable",
      "type": "function"
    },
    {
      "inputs": [
        {
          "internalType": "address",
          "name": "operator",
          "type": "address"
        },
        {
          "internalType": "bool",
          "name": "approved",
          "type": "bool"
        }
      ],
      "name": "setApprovalForAll",
      "outputs": [],
      "stateMutability": "nonpayable",
      "type": "function"
    },
    {
      "inputs": [
        {
          "internalType": "uint256",
          "name": "_mintPrice",
          "type": "uint256"
        }
      ],
      "name": "setMintPrice",
      "outputs": [],
      "stateMutability": "nonpayable",
      "type": "function"
    },
    {
      "inputs": [
        {
          "internalType": "uint256",
          "name": "",
          "type": "uint256"
        }
      ],
      "name": "stakers",
      "outputs": [
        {
          "internalType": "address payable",
          "name": "",
          "type": "address"
        }
      ],
      "stateMutability": "view",
      "type": "function"
    },
    {
      "inputs": [
        {
          "internalType": "bytes4",
          "name": "interfaceId",
          "type": "bytes4"
        }
      ],
      "name": "supportsInterface",
      "outputs": [
        {
          "internalType": "bool",
          "name": "",
          "type": "bool"
        }
      ],
      "stateMutability": "view",
      "type": "function"
    },
    {
      "inputs": [],
      "name": "symbol",
      "outputs": [
        {
          "internalType": "string",
          "name": "",
          "type": "string"
        }
      ],
      "stateMutability": "view",
      "type": "function"
    },
    {
      "inputs": [],
      "name": "takeBalance",
      "outputs": [],
      "stateMutability": "nonpayable",
      "type": "function"
    },
    {
      "inputs": [],
      "name": "takeStake",
      "outputs": [],
      "stateMutability": "nonpayable",
      "type": "function"
    },
    {
      "inputs": [
        {
          "internalType": "uint256",
          "name": "tokenId",
          "type": "uint256"
        }
      ],
      "name": "tokenURI",
      "outputs": [
        {
          "internalType": "string",
          "name": "",
          "type": "string"
        }
      ],
      "stateMutability": "view",
      "type": "function"
    },
    {
      "inputs": [],
      "name": "totalStakersReward",
      "outputs": [
        {
          "internalType": "uint256",
          "name": "",
          "type": "uint256"
        }
      ],
      "stateMutability": "view",
      "type": "function"
    },
    {
      "inputs": [],
      "name": "totalSupply",
      "outputs": [
        {
          "internalType": "uint16",
          "name": "",
          "type": "uint16"
        }
      ],
      "stateMutability": "view",
      "type": "function"
    },
    {
      "inputs": [
        {
          "internalType": "address",
          "name": "from",
          "type": "address"
        },
        {
          "internalType": "address",
          "name": "to",
          "type": "address"
        },
        {
          "internalType": "uint256",
          "name": "tokenId",
          "type": "uint256"
        }
      ],
      "name": "transferFrom",
      "outputs": [],
      "stateMutability": "nonpayable",
      "type": "function"
    },
    {
      "inputs": [
        {
          "internalType": "address",
          "name": "newOwner",
          "type": "address"
        }
      ],
      "name": "transferOwnership",
      "outputs": [],
      "stateMutability": "nonpayable",
      "type": "function"
    },
    {
      "stateMutability": "payable",
      "type": "receive"
    }
  ],
  "bytecode": "0x60806040526000600960006101000a81548161ffff021916908361ffff1602179055506103e8600960026101000a81548161ffff021916908361ffff160217905550678ac7230489e80000600a556000600b553480156200005f57600080fd5b506040518060400160405280600581526020017f4d794e46540000000000000000000000000000000000000000000000000000008152506040518060400160405280600381526020017f4e465400000000000000000000000000000000000000000000000000000000008152508160009080519060200190620000e492919062000235565b508060019080519060200190620000fd92919062000235565b50505062000120620001146200016760201b60201c565b6200016f60201b60201c565b33600c60006101000a81548173ffffffffffffffffffffffffffffffffffffffff021916908373ffffffffffffffffffffffffffffffffffffffff1602179055506200034a565b600033905090565b6000600760009054906101000a900473ffffffffffffffffffffffffffffffffffffffff16905081600760006101000a81548173ffffffffffffffffffffffffffffffffffffffff021916908373ffffffffffffffffffffffffffffffffffffffff1602179055508173ffffffffffffffffffffffffffffffffffffffff168173ffffffffffffffffffffffffffffffffffffffff167f8be0079c531659141344cd1fd0a4f28419497f9722a3daafe3b4186f6b6457e060405160405180910390a35050565b828054620002439062000314565b90600052602060002090601f016020900481019282620002675760008555620002b3565b82601f106200028257805160ff1916838001178555620002b3565b82800160010185558215620002b3579182015b82811115620002b257825182559160200191906001019062000295565b5b509050620002c29190620002c6565b5090565b5b80821115620002e1576000816000905550600101620002c7565b5090565b7f4e487b7100000000000000000000000000000000000000000000000000000000600052602260045260246000fd5b600060028204905060018216806200032d57607f821691505b60208210811415620003445762000343620002e5565b5b50919050565b6140fb806200035a6000396000f3fe6080604052600436106101a05760003560e01c80636352211e116100ec578063b88d4fde1161008a578063eacabe1411610064578063eacabe14146105af578063f2fde38b146105df578063f4a0a52814610608578063fd5e6dd114610631576101a7565b8063b88d4fde1461050c578063c87b56dd14610535578063e985e9c514610572576101a7565b8063715018a6116100c6578063715018a6146104765780638da5cb5b1461048d57806395d89b41146104b8578063a22cb465146104e3576101a7565b80636352211e146103d15780636817c76c1461040e57806370a0823114610439576101a7565b806312065fe01161015957806329a2192b1161013357806329a2192b1461034f57806342842e0e146103665780634fd2cb361461038f5780635499dca5146103a6576101a7565b806312065fe0146102d057806318160ddd146102fb57806323b872dd14610326576101a7565b806301ffc9a7146101ac57806306fdde03146101e9578063081812fc14610214578063095ea7b3146102515780630ca1c5c91461027a57806311c6183e146102a5576101a7565b366101a757005b600080fd5b3480156101b857600080fd5b506101d360048036038101906101ce91906129d4565b61066e565b6040516101e09190612a1c565b60405180910390f35b3480156101f557600080fd5b506101fe610750565b60405161020b9190612ad0565b60405180910390f35b34801561022057600080fd5b5061023b60048036038101906102369190612b28565b6107e2565b6040516102489190612b96565b60405180910390f35b34801561025d57600080fd5b5061027860048036038101906102739190612bdd565b610867565b005b34801561028657600080fd5b5061028f61097f565b60405161029c9190612c3a565b60405180910390f35b3480156102b157600080fd5b506102ba610997565b6040516102c79190612c64565b60405180910390f35b3480156102dc57600080fd5b506102e561099d565b6040516102f29190612c64565b60405180910390f35b34801561030757600080fd5b50610310610a2e565b60405161031d9190612c3a565b60405180910390f35b34801561033257600080fd5b5061034d60048036038101906103489190612c7f565b610a42565b005b34801561035b57600080fd5b50610364610aa2565b005b34801561037257600080fd5b5061038d60048036038101906103889190612c7f565b610b9d565b005b34801561039b57600080fd5b506103a4610bbd565b005b3480156103b257600080fd5b506103bb610d4b565b6040516103c89190612c64565b60405180910390f35b3480156103dd57600080fd5b506103f860048036038101906103f39190612b28565b610d92565b6040516104059190612b96565b60405180910390f35b34801561041a57600080fd5b50610423610e44565b6040516104309190612c64565b60405180910390f35b34801561044557600080fd5b50610460600480360381019061045b9190612cd2565b610e4a565b60405161046d9190612c64565b60405180910390f35b34801561048257600080fd5b5061048b610f02565b005b34801561049957600080fd5b506104a2610f8a565b6040516104af9190612b96565b60405180910390f35b3480156104c457600080fd5b506104cd610fb4565b6040516104da9190612ad0565b60405180910390f35b3480156104ef57600080fd5b5061050a60048036038101906105059190612d2b565b611046565b005b34801561051857600080fd5b50610533600480360381019061052e9190612ea0565b61105c565b005b34801561054157600080fd5b5061055c60048036038101906105579190612b28565b6110be565b6040516105699190612ad0565b60405180910390f35b34801561057e57600080fd5b5061059960048036038101906105949190612f23565b611210565b6040516105a69190612a1c565b60405180910390f35b6105c960048036038101906105c49190613004565b6112a4565b6040516105d69190612c64565b60405180910390f35b3480156105eb57600080fd5b5061060660048036038101906106019190612cd2565b6115a4565b005b34801561061457600080fd5b5061062f600480360381019061062a9190612b28565b61169c565b005b34801561063d57600080fd5b5061065860048036038101906106539190612b28565b611722565b6040516106659190613081565b60405180910390f35b60007f80ac58cd000000000000000000000000000000000000000000000000000000007bffffffffffffffffffffffffffffffffffffffffffffffffffffffff1916827bffffffffffffffffffffffffffffffffffffffffffffffffffffffff1916148061073957507f5b5e139f000000000000000000000000000000000000000000000000000000007bffffffffffffffffffffffffffffffffffffffffffffffffffffffff1916827bffffffffffffffffffffffffffffffffffffffffffffffffffffffff1916145b80610749575061074882611761565b5b9050919050565b60606000805461075f906130cb565b80601f016020809104026020016040519081016040528092919081815260200182805461078b906130cb565b80156107d85780601f106107ad576101008083540402835291602001916107d8565b820191906000526020600020905b8154815290600101906020018083116107bb57829003601f168201915b5050505050905090565b60006107ed826117cb565b61082c576040517f08c379a00000000000000000000000000000000000000000000000000000000081526004016108239061316f565b60405180910390fd5b6004600083815260200190815260200160002060009054906101000a900473ffffffffffffffffffffffffffffffffffffffff169050919050565b600061087282610d92565b90508073ffffffffffffffffffffffffffffffffffffffff168373ffffffffffffffffffffffffffffffffffffffff1614156108e3576040517f08c379a00000000000000000000000000000000000000000000000000000000081526004016108da90613201565b60405180910390fd5b8073ffffffffffffffffffffffffffffffffffffffff16610902611837565b73ffffffffffffffffffffffffffffffffffffffff16148061093157506109308161092b611837565b611210565b5b610970576040517f08c379a000000000000000000000000000000000000000000000000000000000815260040161096790613293565b60405180910390fd5b61097a838361183f565b505050565b6000600960009054906101000a900461ffff16905090565b600b5481565b60006109a7611837565b73ffffffffffffffffffffffffffffffffffffffff166109c5610f8a565b73ffffffffffffffffffffffffffffffffffffffff1614610a1b576040517f08c379a0000000000000000000000000000000000000000000000000000000008152600401610a12906132ff565b60405180910390fd5b600b5447610a29919061334e565b905090565b600960029054906101000a900461ffff1681565b610a53610a4d611837565b826118f8565b610a92576040517f08c379a0000000000000000000000000000000000000000000000000000000008152600401610a89906133f4565b60405180910390fd5b610a9d8383836119d6565b505050565b610aaa611837565b73ffffffffffffffffffffffffffffffffffffffff16610ac8610f8a565b73ffffffffffffffffffffffffffffffffffffffff1614610b1e576040517f08c379a0000000000000000000000000000000000000000000000000000000008152600401610b15906132ff565b60405180910390fd5b600c60009054906101000a900473ffffffffffffffffffffffffffffffffffffffff1673ffffffffffffffffffffffffffffffffffffffff166108fc600b54610b6561099d565b610b6f919061334e565b9081150290604051600060405180830381858888f19350505050158015610b9a573d6000803e3d6000fd5b50565b610bb88383836040518060200160405280600081525061105c565b505050565b6000600e60003373ffffffffffffffffffffffffffffffffffffffff1673ffffffffffffffffffffffffffffffffffffffff1681526020019081526020016000205411610c3f576040517f08c379a0000000000000000000000000000000000000000000000000000000008152600401610c3690613460565b60405180910390fd5b6000600e60003373ffffffffffffffffffffffffffffffffffffffff1673ffffffffffffffffffffffffffffffffffffffff1681526020019081526020016000205490506000600e60003373ffffffffffffffffffffffffffffffffffffffff1673ffffffffffffffffffffffffffffffffffffffff168152602001908152602001600020819055503373ffffffffffffffffffffffffffffffffffffffff166108fc829081150290604051600060405180830381858888f19350505050158015610d0e573d6000803e3d6000fd5b507f2229f757d218b21a806c1a7d13dab3826fa925d38ac3b0f4ada53048d40624d63382604051610d40929190613480565b60405180910390a150565b6000600e60003373ffffffffffffffffffffffffffffffffffffffff1673ffffffffffffffffffffffffffffffffffffffff16815260200190815260200160002054905090565b6000806002600084815260200190815260200160002060009054906101000a900473ffffffffffffffffffffffffffffffffffffffff169050600073ffffffffffffffffffffffffffffffffffffffff168173ffffffffffffffffffffffffffffffffffffffff161415610e3b576040517f08c379a0000000000000000000000000000000000000000000000000000000008152600401610e329061351b565b60405180910390fd5b80915050919050565b600a5481565b60008073ffffffffffffffffffffffffffffffffffffffff168273ffffffffffffffffffffffffffffffffffffffff161415610ebb576040517f08c379a0000000000000000000000000000000000000000000000000000000008152600401610eb2906135ad565b60405180910390fd5b600360008373ffffffffffffffffffffffffffffffffffffffff1673ffffffffffffffffffffffffffffffffffffffff168152602001908152602001600020549050919050565b610f0a611837565b73ffffffffffffffffffffffffffffffffffffffff16610f28610f8a565b73ffffffffffffffffffffffffffffffffffffffff1614610f7e576040517f08c379a0000000000000000000000000000000000000000000000000000000008152600401610f75906132ff565b60405180910390fd5b610f886000611c32565b565b6000600760009054906101000a900473ffffffffffffffffffffffffffffffffffffffff16905090565b606060018054610fc3906130cb565b80601f0160208091040260200160405190810160405280929190818152602001828054610fef906130cb565b801561103c5780601f106110115761010080835404028352916020019161103c565b820191906000526020600020905b81548152906001019060200180831161101f57829003601f168201915b5050505050905090565b611058611051611837565b8383611cf8565b5050565b61106d611067611837565b836118f8565b6110ac576040517f08c379a00000000000000000000000000000000000000000000000000000000081526004016110a3906133f4565b60405180910390fd5b6110b884848484611e65565b50505050565b60606110c9826117cb565b611108576040517f08c379a00000000000000000000000000000000000000000000000000000000081526004016110ff9061363f565b60405180910390fd5b6000600660008481526020019081526020016000208054611128906130cb565b80601f0160208091040260200160405190810160405280929190818152602001828054611154906130cb565b80156111a15780601f10611176576101008083540402835291602001916111a1565b820191906000526020600020905b81548152906001019060200180831161118457829003601f168201915b5050505050905060006111b2611ec1565b90506000815114156111c857819250505061120b565b6000825111156111fd5780826040516020016111e592919061369b565b6040516020818303038152906040529250505061120b565b61120684611ed8565b925050505b919050565b6000600560008473ffffffffffffffffffffffffffffffffffffffff1673ffffffffffffffffffffffffffffffffffffffff16815260200190815260200160002060008373ffffffffffffffffffffffffffffffffffffffff1673ffffffffffffffffffffffffffffffffffffffff16815260200190815260200160002060009054906101000a900460ff16905092915050565b6000600960029054906101000a900461ffff1661ffff16600960009054906101000a900461ffff1661ffff1610611310576040517f08c379a00000000000000000000000000000000000000000000000000000000081526004016113079061370b565b60405180910390fd5b600a543414611354576040517f08c379a000000000000000000000000000000000000000000000000000000000815260040161134b90613777565b60405180910390fd5b61135e6008611f7f565b6009600081819054906101000a900461ffff168092919061137e90613797565b91906101000a81548161ffff021916908361ffff1602179055505060006113a56008611f95565b90506113b18482611fa3565b6113c4816113bf8584612171565b6121a5565b6000600f60003373ffffffffffffffffffffffffffffffffffffffff1673ffffffffffffffffffffffffffffffffffffffff1681526020019081526020016000205414156114b9576001600f60003373ffffffffffffffffffffffffffffffffffffffff1673ffffffffffffffffffffffffffffffffffffffff16815260200190815260200160002081905550600d339080600181540180825580915050600190039060005260206000200160009091909190916101000a81548173ffffffffffffffffffffffffffffffffffffffff021916908373ffffffffffffffffffffffffffffffffffffffff160217905550611549565b6001600f60003373ffffffffffffffffffffffffffffffffffffffff1673ffffffffffffffffffffffffffffffffffffffff1681526020019081526020016000205461150591906137c2565b600f60003373ffffffffffffffffffffffffffffffffffffffff1673ffffffffffffffffffffffffffffffffffffffff168152602001908152602001600020819055505b611551612219565b7f32ce1bce976f4c290daa3d0d6c20161a8fac3d643a72c41e06d407a3057224c633600960009054906101000a900461ffff16604051611592929190613818565b60405180910390a18091505092915050565b6115ac611837565b73ffffffffffffffffffffffffffffffffffffffff166115ca610f8a565b73ffffffffffffffffffffffffffffffffffffffff1614611620576040517f08c379a0000000000000000000000000000000000000000000000000000000008152600401611617906132ff565b60405180910390fd5b600073ffffffffffffffffffffffffffffffffffffffff168173ffffffffffffffffffffffffffffffffffffffff161415611690576040517f08c379a0000000000000000000000000000000000000000000000000000000008152600401611687906138b3565b60405180910390fd5b61169981611c32565b50565b6116a4611837565b73ffffffffffffffffffffffffffffffffffffffff166116c2610f8a565b73ffffffffffffffffffffffffffffffffffffffff1614611718576040517f08c379a000000000000000000000000000000000000000000000000000000000815260040161170f906132ff565b60405180910390fd5b80600a8190555050565b600d818154811061173257600080fd5b906000526020600020016000915054906101000a900473ffffffffffffffffffffffffffffffffffffffff1681565b60007f01ffc9a7000000000000000000000000000000000000000000000000000000007bffffffffffffffffffffffffffffffffffffffffffffffffffffffff1916827bffffffffffffffffffffffffffffffffffffffffffffffffffffffff1916149050919050565b60008073ffffffffffffffffffffffffffffffffffffffff166002600084815260200190815260200160002060009054906101000a900473ffffffffffffffffffffffffffffffffffffffff1673ffffffffffffffffffffffffffffffffffffffff1614159050919050565b600033905090565b816004600083815260200190815260200160002060006101000a81548173ffffffffffffffffffffffffffffffffffffffff021916908373ffffffffffffffffffffffffffffffffffffffff160217905550808273ffffffffffffffffffffffffffffffffffffffff166118b283610d92565b73ffffffffffffffffffffffffffffffffffffffff167f8c5be1e5ebec7d5bd14f71427d1e84f3dd0314c0f7b2291e5b200ac8c7c3b92560405160405180910390a45050565b6000611903826117cb565b611942576040517f08c379a000000000000000000000000000000000000000000000000000000000815260040161193990613945565b60405180910390fd5b600061194d83610d92565b90508073ffffffffffffffffffffffffffffffffffffffff168473ffffffffffffffffffffffffffffffffffffffff1614806119bc57508373ffffffffffffffffffffffffffffffffffffffff166119a4846107e2565b73ffffffffffffffffffffffffffffffffffffffff16145b806119cd57506119cc8185611210565b5b91505092915050565b8273ffffffffffffffffffffffffffffffffffffffff166119f682610d92565b73ffffffffffffffffffffffffffffffffffffffff1614611a4c576040517f08c379a0000000000000000000000000000000000000000000000000000000008152600401611a43906139d7565b60405180910390fd5b600073ffffffffffffffffffffffffffffffffffffffff168273ffffffffffffffffffffffffffffffffffffffff161415611abc576040517f08c379a0000000000000000000000000000000000000000000000000000000008152600401611ab390613a69565b60405180910390fd5b611ac783838361243b565b611ad260008261183f565b6001600360008573ffffffffffffffffffffffffffffffffffffffff1673ffffffffffffffffffffffffffffffffffffffff1681526020019081526020016000206000828254611b22919061334e565b925050819055506001600360008473ffffffffffffffffffffffffffffffffffffffff1673ffffffffffffffffffffffffffffffffffffffff1681526020019081526020016000206000828254611b7991906137c2565b92505081905550816002600083815260200190815260200160002060006101000a81548173ffffffffffffffffffffffffffffffffffffffff021916908373ffffffffffffffffffffffffffffffffffffffff160217905550808273ffffffffffffffffffffffffffffffffffffffff168473ffffffffffffffffffffffffffffffffffffffff167fddf252ad1be2c89b69c2b068fc378daa952ba7f163c4a11628f55a4df523b3ef60405160405180910390a4505050565b6000600760009054906101000a900473ffffffffffffffffffffffffffffffffffffffff16905081600760006101000a81548173ffffffffffffffffffffffffffffffffffffffff021916908373ffffffffffffffffffffffffffffffffffffffff1602179055508173ffffffffffffffffffffffffffffffffffffffff168173ffffffffffffffffffffffffffffffffffffffff167f8be0079c531659141344cd1fd0a4f28419497f9722a3daafe3b4186f6b6457e060405160405180910390a35050565b8173ffffffffffffffffffffffffffffffffffffffff168373ffffffffffffffffffffffffffffffffffffffff161415611d67576040517f08c379a0000000000000000000000000000000000000000000000000000000008152600401611d5e90613ad5565b60405180910390fd5b80600560008573ffffffffffffffffffffffffffffffffffffffff1673ffffffffffffffffffffffffffffffffffffffff16815260200190815260200160002060008473ffffffffffffffffffffffffffffffffffffffff1673ffffffffffffffffffffffffffffffffffffffff16815260200190815260200160002060006101000a81548160ff0219169083151502179055508173ffffffffffffffffffffffffffffffffffffffff168373ffffffffffffffffffffffffffffffffffffffff167f17307eab39ab6107e8899845ad3d59bd9653f200f220920489ca2b5937696c3183604051611e589190612a1c565b60405180910390a3505050565b611e708484846119d6565b611e7c84848484612440565b611ebb576040517f08c379a0000000000000000000000000000000000000000000000000000000008152600401611eb290613b67565b60405180910390fd5b50505050565b606060405180602001604052806000815250905090565b6060611ee3826117cb565b611f22576040517f08c379a0000000000000000000000000000000000000000000000000000000008152600401611f1990613bf9565b60405180910390fd5b6000611f2c611ec1565b90506000815111611f4c5760405180602001604052806000815250611f77565b80611f56846125c8565b604051602001611f6792919061369b565b6040516020818303038152906040525b915050919050565b6001816000016000828254019250508190555050565b600081600001549050919050565b600073ffffffffffffffffffffffffffffffffffffffff168273ffffffffffffffffffffffffffffffffffffffff161415612013576040517f08c379a000000000000000000000000000000000000000000000000000000000815260040161200a90613c65565b60405180910390fd5b61201c816117cb565b1561205c576040517f08c379a000000000000000000000000000000000000000000000000000000000815260040161205390613cd1565b60405180910390fd5b6120686000838361243b565b6001600360008473ffffffffffffffffffffffffffffffffffffffff1673ffffffffffffffffffffffffffffffffffffffff16815260200190815260200160002060008282546120b891906137c2565b92505081905550816002600083815260200190815260200160002060006101000a81548173ffffffffffffffffffffffffffffffffffffffff021916908373ffffffffffffffffffffffffffffffffffffffff160217905550808273ffffffffffffffffffffffffffffffffffffffff16600073ffffffffffffffffffffffffffffffffffffffff167fddf252ad1be2c89b69c2b068fc378daa952ba7f163c4a11628f55a4df523b3ef60405160405180910390a45050565b60608261217d83612729565b60405160200161218e929190613d3d565b604051602081830303815290604052905092915050565b6121ae826117cb565b6121ed576040517f08c379a00000000000000000000000000000000000000000000000000000000081526004016121e490613dde565b60405180910390fd5b806006600084815260200190815260200160002090805190602001906122149291906128c5565b505050565b6000600a80546122299190613e2d565b905080600b5461223991906137c2565b600b819055506000600960009054906101000a900461ffff1661ffff16826122619190613e2d565b905060005b600d805490508163ffffffff16101561243657600082600f6000600d8563ffffffff168154811061229a57612299613e5e565b5b9060005260206000200160009054906101000a900473ffffffffffffffffffffffffffffffffffffffff1673ffffffffffffffffffffffffffffffffffffffff1673ffffffffffffffffffffffffffffffffffffffff1681526020019081526020016000205461230a9190613e8d565b905080600e6000600d8563ffffffff168154811061232b5761232a613e5e565b5b9060005260206000200160009054906101000a900473ffffffffffffffffffffffffffffffffffffffff1673ffffffffffffffffffffffffffffffffffffffff1673ffffffffffffffffffffffffffffffffffffffff1681526020019081526020016000205461239b91906137c2565b600e6000600d8563ffffffff16815481106123b9576123b8613e5e565b5b9060005260206000200160009054906101000a900473ffffffffffffffffffffffffffffffffffffffff1673ffffffffffffffffffffffffffffffffffffffff1673ffffffffffffffffffffffffffffffffffffffff1681526020019081526020016000208190555050808061242e90613ef7565b915050612266565b505050565b505050565b60006124618473ffffffffffffffffffffffffffffffffffffffff166128b2565b156125bb578373ffffffffffffffffffffffffffffffffffffffff1663150b7a0261248a611837565b8786866040518563ffffffff1660e01b81526004016124ac9493929190613f79565b6020604051808303816000875af19250505080156124e857506040513d601f19601f820116820180604052508101906124e59190613fda565b60015b61256b573d8060008114612518576040519150601f19603f3d011682016040523d82523d6000602084013e61251d565b606091505b50600081511415612563576040517f08c379a000000000000000000000000000000000000000000000000000000000815260040161255a90613b67565b60405180910390fd5b805181602001fd5b63150b7a0260e01b7bffffffffffffffffffffffffffffffffffffffffffffffffffffffff1916817bffffffffffffffffffffffffffffffffffffffffffffffffffffffff1916149150506125c0565b600190505b949350505050565b60606000821415612610576040518060400160405280600181526020017f30000000000000000000000000000000000000000000000000000000000000008152509050612724565b600082905060005b6000821461264257808061262b90614007565b915050600a8261263b9190613e2d565b9150612618565b60008167ffffffffffffffff81111561265e5761265d612d75565b5b6040519080825280601f01601f1916602001820160405280156126905781602001600182028036833780820191505090505b5090505b6000851461271d576001826126a9919061334e565b9150600a856126b89190614050565b60306126c491906137c2565b60f81b8183815181106126da576126d9613e5e565b5b60200101907effffffffffffffffffffffffffffffffffffffffffffffffffffffffffffff1916908160001a905350600a856127169190613e2d565b9450612694565b8093505050505b919050565b60606000821415612771576040518060400160405280600181526020017f300000000000000000000000000000000000000000000000000000000000000081525090506128ad565b600082905060005b600082146127a357808061278c90614007565b915050600a8261279c9190613e2d565b9150612779565b60008167ffffffffffffffff8111156127bf576127be612d75565b5b6040519080825280601f01601f1916602001820160405280156127f15781602001600182028036833780820191505090505b50905060008290505b600086146128a55760018161280f919061334e565b90506000600a80886128219190613e2d565b61282b9190613e8d565b87612836919061334e565b6030612842919061408e565b905060008160f81b9050808484815181106128605761285f613e5e565b5b60200101907effffffffffffffffffffffffffffffffffffffffffffffffffffffffffffff1916908160001a905350600a8861289c9190613e2d565b975050506127fa565b819450505050505b919050565b600080823b905060008111915050919050565b8280546128d1906130cb565b90600052602060002090601f0160209004810192826128f3576000855561293a565b82601f1061290c57805160ff191683800117855561293a565b8280016001018555821561293a579182015b8281111561293957825182559160200191906001019061291e565b5b509050612947919061294b565b5090565b5b8082111561296457600081600090555060010161294c565b5090565b6000604051905090565b600080fd5b600080fd5b60007fffffffff0000000000000000000000000000000000000000000000000000000082169050919050565b6129b18161297c565b81146129bc57600080fd5b50565b6000813590506129ce816129a8565b92915050565b6000602082840312156129ea576129e9612972565b5b60006129f8848285016129bf565b91505092915050565b60008115159050919050565b612a1681612a01565b82525050565b6000602082019050612a316000830184612a0d565b92915050565b600081519050919050565b600082825260208201905092915050565b60005b83811015612a71578082015181840152602081019050612a56565b83811115612a80576000848401525b50505050565b6000601f19601f8301169050919050565b6000612aa282612a37565b612aac8185612a42565b9350612abc818560208601612a53565b612ac581612a86565b840191505092915050565b60006020820190508181036000830152612aea8184612a97565b905092915050565b6000819050919050565b612b0581612af2565b8114612b1057600080fd5b50565b600081359050612b2281612afc565b92915050565b600060208284031215612b3e57612b3d612972565b5b6000612b4c84828501612b13565b91505092915050565b600073ffffffffffffffffffffffffffffffffffffffff82169050919050565b6000612b8082612b55565b9050919050565b612b9081612b75565b82525050565b6000602082019050612bab6000830184612b87565b92915050565b612bba81612b75565b8114612bc557600080fd5b50565b600081359050612bd781612bb1565b92915050565b60008060408385031215612bf457612bf3612972565b5b6000612c0285828601612bc8565b9250506020612c1385828601612b13565b9150509250929050565b600061ffff82169050919050565b612c3481612c1d565b82525050565b6000602082019050612c4f6000830184612c2b565b92915050565b612c5e81612af2565b82525050565b6000602082019050612c796000830184612c55565b92915050565b600080600060608486031215612c9857612c97612972565b5b6000612ca686828701612bc8565b9350506020612cb786828701612bc8565b9250506040612cc886828701612b13565b9150509250925092565b600060208284031215612ce857612ce7612972565b5b6000612cf684828501612bc8565b91505092915050565b612d0881612a01565b8114612d1357600080fd5b50565b600081359050612d2581612cff565b92915050565b60008060408385031215612d4257612d41612972565b5b6000612d5085828601612bc8565b9250506020612d6185828601612d16565b9150509250929050565b600080fd5b600080fd5b7f4e487b7100000000000000000000000000000000000000000000000000000000600052604160045260246000fd5b612dad82612a86565b810181811067ffffffffffffffff82111715612dcc57612dcb612d75565b5b80604052505050565b6000612ddf612968565b9050612deb8282612da4565b919050565b600067ffffffffffffffff821115612e0b57612e0a612d75565b5b612e1482612a86565b9050602081019050919050565b82818337600083830152505050565b6000612e43612e3e84612df0565b612dd5565b905082815260208101848484011115612e5f57612e5e612d70565b5b612e6a848285612e21565b509392505050565b600082601f830112612e8757612e86612d6b565b5b8135612e97848260208601612e30565b91505092915050565b60008060008060808587031215612eba57612eb9612972565b5b6000612ec887828801612bc8565b9450506020612ed987828801612bc8565b9350506040612eea87828801612b13565b925050606085013567ffffffffffffffff811115612f0b57612f0a612977565b5b612f1787828801612e72565b91505092959194509250565b60008060408385031215612f3a57612f39612972565b5b6000612f4885828601612bc8565b9250506020612f5985828601612bc8565b9150509250929050565b600067ffffffffffffffff821115612f7e57612f7d612d75565b5b612f8782612a86565b9050602081019050919050565b6000612fa7612fa284612f63565b612dd5565b905082815260208101848484011115612fc357612fc2612d70565b5b612fce848285612e21565b509392505050565b600082601f830112612feb57612fea612d6b565b5b8135612ffb848260208601612f94565b91505092915050565b6000806040838503121561301b5761301a612972565b5b600061302985828601612bc8565b925050602083013567ffffffffffffffff81111561304a57613049612977565b5b61305685828601612fd6565b9150509250929050565b600061306b82612b55565b9050919050565b61307b81613060565b82525050565b60006020820190506130966000830184613072565b92915050565b7f4e487b7100000000000000000000000000000000000000000000000000000000600052602260045260246000fd5b600060028204905060018216806130e357607f821691505b602082108114156130f7576130f661309c565b5b50919050565b7f4552433732313a20617070726f76656420717565727920666f72206e6f6e657860008201527f697374656e7420746f6b656e0000000000000000000000000000000000000000602082015250565b6000613159602c83612a42565b9150613164826130fd565b604082019050919050565b600060208201905081810360008301526131888161314c565b9050919050565b7f4552433732313a20617070726f76616c20746f2063757272656e74206f776e6560008201527f7200000000000000000000000000000000000000000000000000000000000000602082015250565b60006131eb602183612a42565b91506131f68261318f565b604082019050919050565b6000602082019050818103600083015261321a816131de565b9050919050565b7f4552433732313a20617070726f76652063616c6c6572206973206e6f74206f7760008201527f6e6572206e6f7220617070726f76656420666f7220616c6c0000000000000000602082015250565b600061327d603883612a42565b915061328882613221565b604082019050919050565b600060208201905081810360008301526132ac81613270565b9050919050565b7f4f776e61626c653a2063616c6c6572206973206e6f7420746865206f776e6572600082015250565b60006132e9602083612a42565b91506132f4826132b3565b602082019050919050565b60006020820190508181036000830152613318816132dc565b9050919050565b7f4e487b7100000000000000000000000000000000000000000000000000000000600052601160045260246000fd5b600061335982612af2565b915061336483612af2565b9250828210156133775761337661331f565b5b828203905092915050565b7f4552433732313a207472616e736665722063616c6c6572206973206e6f74206f60008201527f776e6572206e6f7220617070726f766564000000000000000000000000000000602082015250565b60006133de603183612a42565b91506133e982613382565b604082019050919050565b6000602082019050818103600083015261340d816133d1565b9050919050565b7f52656465656d6561626c65205374616b6520697320616c726561647920300000600082015250565b600061344a601e83612a42565b915061345582613414565b602082019050919050565b600060208201905081810360008301526134798161343d565b9050919050565b60006040820190506134956000830185612b87565b6134a26020830184612c55565b9392505050565b7f4552433732313a206f776e657220717565727920666f72206e6f6e657869737460008201527f656e7420746f6b656e0000000000000000000000000000000000000000000000602082015250565b6000613505602983612a42565b9150613510826134a9565b604082019050919050565b60006020820190508181036000830152613534816134f8565b9050919050565b7f4552433732313a2062616c616e636520717565727920666f7220746865207a6560008201527f726f206164647265737300000000000000000000000000000000000000000000602082015250565b6000613597602a83612a42565b91506135a28261353b565b604082019050919050565b600060208201905081810360008301526135c68161358a565b9050919050565b7f45524337323155524953746f726167653a2055524920717565727920666f722060008201527f6e6f6e6578697374656e7420746f6b656e000000000000000000000000000000602082015250565b6000613629603183612a42565b9150613634826135cd565b604082019050919050565b600060208201905081810360008301526136588161361c565b9050919050565b600081905092915050565b600061367582612a37565b61367f818561365f565b935061368f818560208601612a53565b80840191505092915050565b60006136a7828561366a565b91506136b3828461366a565b91508190509392505050565b7f53746f636b204e46542073756461682068616269730000000000000000000000600082015250565b60006136f5601583612a42565b9150613700826136bf565b602082019050919050565b60006020820190508181036000830152613724816136e8565b9050919050565b7f546f6b656e20746964616b207365737561690000000000000000000000000000600082015250565b6000613761601283612a42565b915061376c8261372b565b602082019050919050565b6000602082019050818103600083015261379081613754565b9050919050565b60006137a282612c1d565b915061ffff8214156137b7576137b661331f565b5b600182019050919050565b60006137cd82612af2565b91506137d883612af2565b9250827fffffffffffffffffffffffffffffffffffffffffffffffffffffffffffffffff0382111561380d5761380c61331f565b5b828201905092915050565b600060408201905061382d6000830185612b87565b61383a6020830184612c2b565b9392505050565b7f4f776e61626c653a206e6577206f776e657220697320746865207a65726f206160008201527f6464726573730000000000000000000000000000000000000000000000000000602082015250565b600061389d602683612a42565b91506138a882613841565b604082019050919050565b600060208201905081810360008301526138cc81613890565b9050919050565b7f4552433732313a206f70657261746f7220717565727920666f72206e6f6e657860008201527f697374656e7420746f6b656e0000000000000000000000000000000000000000602082015250565b600061392f602c83612a42565b915061393a826138d3565b604082019050919050565b6000602082019050818103600083015261395e81613922565b9050919050565b7f4552433732313a207472616e73666572206f6620746f6b656e2074686174206960008201527f73206e6f74206f776e0000000000000000000000000000000000000000000000602082015250565b60006139c1602983612a42565b91506139cc82613965565b604082019050919050565b600060208201905081810360008301526139f0816139b4565b9050919050565b7f4552433732313a207472616e7366657220746f20746865207a65726f2061646460008201527f7265737300000000000000000000000000000000000000000000000000000000602082015250565b6000613a53602483612a42565b9150613a5e826139f7565b604082019050919050565b60006020820190508181036000830152613a8281613a46565b9050919050565b7f4552433732313a20617070726f766520746f2063616c6c657200000000000000600082015250565b6000613abf601983612a42565b9150613aca82613a89565b602082019050919050565b60006020820190508181036000830152613aee81613ab2565b9050919050565b7f4552433732313a207472616e7366657220746f206e6f6e20455243373231526560008201527f63656976657220696d706c656d656e7465720000000000000000000000000000602082015250565b6000613b51603283612a42565b9150613b5c82613af5565b604082019050919050565b60006020820190508181036000830152613b8081613b44565b9050919050565b7f4552433732314d657461646174613a2055524920717565727920666f72206e6f60008201527f6e6578697374656e7420746f6b656e0000000000000000000000000000000000602082015250565b6000613be3602f83612a42565b9150613bee82613b87565b604082019050919050565b60006020820190508181036000830152613c1281613bd6565b9050919050565b7f4552433732313a206d696e7420746f20746865207a65726f2061646472657373600082015250565b6000613c4f602083612a42565b9150613c5a82613c19565b602082019050919050565b60006020820190508181036000830152613c7e81613c42565b9050919050565b7f4552433732313a20746f6b656e20616c7265616479206d696e74656400000000600082015250565b6000613cbb601c83612a42565b9150613cc682613c85565b602082019050919050565b60006020820190508181036000830152613cea81613cae565b9050919050565b7f2e6a736f6e000000000000000000000000000000000000000000000000000000600082015250565b6000613d2760058361365f565b9150613d3282613cf1565b600582019050919050565b6000613d49828561366a565b9150613d55828461366a565b9150613d6082613d1a565b91508190509392505050565b7f45524337323155524953746f726167653a2055524920736574206f66206e6f6e60008201527f6578697374656e7420746f6b656e000000000000000000000000000000000000602082015250565b6000613dc8602e83612a42565b9150613dd382613d6c565b604082019050919050565b60006020820190508181036000830152613df781613dbb565b9050919050565b7f4e487b7100000000000000000000000000000000000000000000000000000000600052601260045260246000fd5b6000613e3882612af2565b9150613e4383612af2565b925082613e5357613e52613dfe565b5b828204905092915050565b7f4e487b7100000000000000000000000000000000000000000000000000000000600052603260045260246000fd5b6000613e9882612af2565b9150613ea383612af2565b9250817fffffffffffffffffffffffffffffffffffffffffffffffffffffffffffffffff0483118215151615613edc57613edb61331f565b5b828202905092915050565b600063ffffffff82169050919050565b6000613f0282613ee7565b915063ffffffff821415613f1957613f1861331f565b5b600182019050919050565b600081519050919050565b600082825260208201905092915050565b6000613f4b82613f24565b613f558185613f2f565b9350613f65818560208601612a53565b613f6e81612a86565b840191505092915050565b6000608082019050613f8e6000830187612b87565b613f9b6020830186612b87565b613fa86040830185612c55565b8181036060830152613fba8184613f40565b905095945050505050565b600081519050613fd4816129a8565b92915050565b600060208284031215613ff057613fef612972565b5b6000613ffe84828501613fc5565b91505092915050565b600061401282612af2565b91507fffffffffffffffffffffffffffffffffffffffffffffffffffffffffffffffff8214156140455761404461331f565b5b600182019050919050565b600061405b82612af2565b915061406683612af2565b92508261407657614075613dfe565b5b828206905092915050565b600060ff82169050919050565b600061409982614081565b91506140a483614081565b92508260ff038211156140ba576140b961331f565b5b82820190509291505056fea264697066735822122078e8db09571ac0ac6c293eab5de4133077e8dc8c872a0d78ef7773817dc02acf64736f6c634300080b0033",
  "linkReferences": {},
  "deployedLinkReferences": {}
}